:020000040800F2
:1000000000500020152D0008752C0008772C0008E2
:10001000792C00087B2C00087D2C000800000000D3
:100020000000000000000000000000007F2C00081D
:10003000812C000800000000832C0008852C00089B
:100040005D2D00085D2D00085D2D00085D2D000868
:100050005D2D00085D2D00085D2D00085D2D000858
:100060005D2D00085D2D00085D2D00085D2D000848
:100070005D2D00085D2D00085D2D00085D2D000838
:100080005D2D00085D2D00085D2D00085D2D000828
:100090005D2D00085D2D00085D2D00085D2D000818
:1000A0005D2D00085D2D00085D2D00085D2D000808
:1000B000892C00085D2D00085D2D00085D2D0008CD
:1000C0005D2D00085D2D00085D2D00085D2D0008E8
:1000D0005D2D00085D2D00085D2D00085D2D0008D8
:1000E0005D2D00085D2D00085D2D0008000000005A
:1000F0000000000000000000000000000000000000
:0C01000000000000000000005FF808F1A3
:1001100010B5054C237833B9044B13B10448AFF341
:1001200000800123237010BDDC01002000000000CE
:100130003C4E000808B5034B1BB103490348AFF31D
:10014000008008BD00000000E00100203C4E0008D7
:10015000034613F8012B002AFBD1181A0138704707
:1001600081F0004102E000BF83F0004330B54FEA68
:1001700041044FEA430594EA050F08BF90EA020FD5
:100180001FBF54EA000C55EA020C7FEA645C7FEA68
:10019000655C00F0E2804FEA5454D4EB5555B8BF8B
:1001A0006D420CDD2C4480EA020281EA030382EAFC
:1001B000000083EA010180EA020281EA0303362D8E
:1001C00088BF30BD11F0004F4FEA01314FF4801C61
:1001D0004CEA113102D0404261EB410113F0004F73
:1001E0004FEA03334CEA133302D0524263EB43032A
:1001F00094EA050F00F0A780A4F10104D5F1200EC8
:100200000DDB02FA0EFC22FA05F2801841F1000122
:1002100003FA0EF2801843FA05F359410EE0A5F1F6
:1002200020050EF1200E012A03FA0EFC28BF4CF027
:10023000020C43FA05F3C01851EBE37101F00045DD
:1002400007D54FF0000EDCF1000C7EEB00006EEBEA
:100250000101B1F5801F1BD3B1F5001F0CD3490874
:100260005FEA30004FEA3C0C04F101044FEA4452CB
:1002700012F5800F80F09A80BCF1004F08BF5FEA52
:10028000500C50F1000041EB045141EA050130BD32
:100290005FEA4C0C404141EB010111F4801FA4F1D5
:1002A0000104E9D191F0000F04BF01460020B1FA2A
:1002B00081F308BF2033A3F10B03B3F120020CDA62
:1002C0000C3208DD02F1140CC2F10C0201FA0CF040
:1002D00021FA02F10CE002F11402D8BFC2F1200CA5
:1002E00001FA02F120FA0CFCDCBF41EA0C0190405B
:1002F000E41AA2BF01EB0451294330BD6FEA0404A4
:100300001F3C1CDA0C340EDC04F11404C4F120028E
:1003100020FA04F001FA02F340EA030021FA04F3A0
:1003200045EA030130BDC4F10C04C4F1200220FAF7
:1003300002F001FA04F340EA0300294630BD21FA35
:1003400004F0294630BD94F0000F83F4801306BFFB
:1003500081F480110134013D4EE77FEA645C18BFEF
:100360007FEA655C29D094EA050F08BF90EA020F86
:1003700005D054EA000C04BF1946104630BD91EA7E
:10038000030F1EBF0021002030BD5FEA545C05D181
:100390004000494128BF41F0004130BD14F58004C0
:1003A0003CBF01F5801130BD01F0004545F0FE4134
:1003B00041F470014FF0000030BD7FEA645C1ABF69
:1003C000194610467FEA655C1CBF0B46024650EAA0
:1003D000013406BF52EA033591EA030F41F40021CC
:1003E00030BD00BF90F0000F04BF0021704730B552
:1003F0004FF4806404F132044FF000054FF0000127
:1004000050E700BF90F0000F04BF0021704730B5E7
:100410004FF4806404F1320410F0004548BF4042BC
:100420004FF000013EE700BF42004FEAE2014FEA11
:1004300031014FEA02701FBF12F07F4393F07F4FEC
:1004400081F06051704732F07F4208BF704793F0EF
:100450007F4F04BF41F40021704730B54FF4607402
:1004600001F0004521F000411CE700BF50EA010205
:1004700008BF704730B54FF000050AE050EA0102AE
:1004800008BF704730B511F0004502D5404261EB1E
:1004900041014FF4806404F132045FEA915C3FF45F
:1004A000D8AE4FF003025FEADC0C18BF03325FEAFC
:1004B000DC0C18BF033202EBDC02C2F1200300FAAD
:1004C00003FC20FA02F001FA03FE40EA0E0021FAD2
:1004D00002F11444BDE600BF70B54FF0FF0C4CF4C0
:1004E000E06C1CEA11541DBF1CEA135594EA0C0F72
:1004F00095EA0C0F00F0DEF82C4481EA030621EAAD
:100500004C5123EA4C5350EA013518BF52EA0335E7
:1005100041F4801143F4801338D0A0FB02CE4FF099
:100520000005E1FB02E506F00042E0FB03E54FF0C9
:100530000006E1FB03569CF0000F18BF4EF0010EC1
:10054000A4F1FF04B6F5007F64F5407404D25FEABD
:100550004E0E6D4146EB060642EAC62141EA555170
:100560004FEAC52040EA5E504FEACE2EB4F1FD0CB2
:1005700088BFBCF5E06F1ED8BEF1004F08BF5FEA30
:10058000500E50F1000041EB045170BD06F00046E2
:1005900046EA010140EA020081EA0301B4EB5C048F
:1005A000C2BFD4EB0C0541EA045170BD41F4801187
:1005B0004FF0000E013C00F3AB8014F1360FDEBFAC
:1005C000002001F0004170BDC4F10004203C35DA88
:1005D0000C341BDC04F11404C4F1200500FA05F30B
:1005E00020FA04F001FA05F240EA020001F00042AC
:1005F00021F0004110EBD37021FA04F642EB060122
:100600005EEA430E08BF20EAD37070BDC4F10C044B
:10061000C4F1200500FA04F320FA05F001FA04F20F
:1006200040EA020001F0004110EBD37041F10001FB
:100630005EEA430E08BF20EAD37070BDC4F1200506
:1006400000FA05F24EEA020E20FA04F301FA05F26E
:1006500043EA020321FA04F001F0004121FA04F216
:1006600020EA020000EBD3705EEA430E08BF20EAE6
:10067000D37070BD94F0000F0FD101F00046400020
:1006800041EB010111F4801F08BF013CF7D041EAA2
:10069000060195F0000F18BF704703F000465200A6
:1006A00043EB030313F4801F08BF013DF7D043EA77
:1006B0000603704794EA0C0F0CEA135518BF95EA2D
:1006C0000C0F0CD050EA410618BF52EA4306D1D1B4
:1006D00081EA030101F000414FF0000070BD50EAD3
:1006E000410606BF1046194652EA430619D094EA5D
:1006F0000C0F02D150EA013613D195EA0C0F05D147
:1007000052EA03361CBF104619460AD181EA03019A
:1007100001F0004141F0FE4141F470014FF0000052
:1007200070BD41F0FE4141F4780170BD70B54FF0ED
:10073000FF0C4CF4E06C1CEA11541DBF1CEA13556D
:1007400094EA0C0F95EA0C0F00F0A7F8A4EB05044F
:1007500081EA030E52EA03354FEA013100F0888046
:100760004FEA03334FF0805545EA131343EA12630F
:100770004FEA022245EA111545EA10654FEA0026C4
:100780000EF000419D4208BF964244F1FD0404F57D
:10079000407402D25B084FEA3202B61A65EB0305D9
:1007A0005B084FEA32024FF480104FF4002CB6EB96
:1007B000020E75EB030E22BFB61A754640EA0C0016
:1007C0005B084FEA3202B6EB020E75EB030E22BF56
:1007D000B61A754640EA5C005B084FEA3202B6EB97
:1007E000020E75EB030E22BFB61A754640EA9C0056
:1007F0005B084FEA3202B6EB020E75EB030E22BF26
:10080000B61A754640EADC0055EA060E18D04FEAE3
:10081000051545EA16754FEA06164FEAC30343EA83
:1008200052734FEAC2025FEA1C1CC0D111F4801F50
:100830000BD141EA00014FF000004FF0004CB6E749
:1008400011F4801F04BF01430020B4F1FD0C88BFE8
:10085000BCF5E06F3FF6AFAEB5EB030C04BFB6EBF3
:10086000020C5FEA500C50F1000041EB045170BDE6
:100870000EF0004E4EEA113114EB5C04C2BFD4EB13
:100880000C0541EA045170BD41F480114FF0000E97
:10089000013C90E645EA060E8DE60CEA135594EA13
:1008A0000C0F08BF95EA0C0F3FF43BAF94EA0C0F16
:1008B0000AD150EA01347FF434AF95EA0C0F7FF48B
:1008C00025AF104619462CE795EA0C0F06D152EADF
:1008D00003353FF4FDAE1046194622E750EA4106C3
:1008E00018BF52EA43067FF4C5AE50EA41047FF4D4
:1008F0000DAF52EA43057FF4EBAE12E74FF0FF3C39
:1009000006E000BF4FF0010C02E000BF4FF0010C09
:100910004DF804CD4FEA410C7FEA6C5C4FEA430C82
:1009200018BF7FEA6C5C1BD001B050EA410C0CBFD1
:1009300052EA430C91EA030F02BF90EA020F002033
:10094000704710F1000F91EA030F58BF994208BF9A
:1009500090422CBFD8176FEAE37040F00100704757
:100960004FEA410C7FEA6C5C02D150EA013C07D1AE
:100970004FEA430C7FEA6C5CD6D152EA033CD3D0F9
:100980005DF8040B704700BF8446104662468C46F3
:100990001946634600E000BF01B5FFF7B7FF002826
:1009A00048BF10F1000F01BD4DF808EDFFF7F4FF4F
:1009B0000CBF012000205DF808FB00BF4DF808EDDA
:1009C000FFF7EAFF34BF012000205DF808FB00BFFD
:1009D0004DF808EDFFF7E0FF94BF012000205DF81F
:1009E00008FB00BF4DF808EDFFF7CEFF94BF0120D4
:1009F00000205DF808FB00BF4DF808EDFFF7C4FFCD
:100A000034BF012000205DF808FB00BF4FEA410C15
:100A10007FEA6C5C02D150EA013C0AD14FEA430CF8
:100A20007FEA6C5C02D152EA033C02D14FF0000035
:100A300070474FF0010070474FEA410212F5001273
:100A400015D211D56FF47873B3EB625212D94FEA15
:100A5000C12343F0004343EA505311F0004F23FAFF
:100A600002F018BF404270474FF00000704750EA54
:100A7000013005D111F0004008BF6FF00040704711
:100A80004FF00000704700BF4FEA4102B2F1E0436F
:100A900024BFB3F5001CDCF1FE5C0DD901F0004C65
:100AA0004FEAC0024CEA5070B2F1004F40EB8300B5
:100AB00008BF20F00100704711F0804F21D113F1E1
:100AC0003872BCBF01F00040704741F480114FEA1A
:100AD0005252C2F11802C2F1200C10FA0CF320FAA3
:100AE00002F018BF40F001004FEAC1234FEAD323C0
:100AF00003FA0CFC40EA0C0023FA02F34FEA43032A
:100B0000CCE77FEA625307D150EA01331EBF4FF0B2
:100B1000FE4040F44000704701F0004040F0FE40CD
:100B200040F40000704700BF38B50E4B05461878FA
:100B30004FF47A73B3FBF0F30B4A1068B0FBF3F099
:100B400000F08CF8044658B90F2D09D80246294602
:100B50004FF0FF3000F042F82046044B1D6038BDD6
:100B60000120FCE700000020080000200400002015
:100B7000074A08B51368032043F01003136000F020
:100B80001BF80020FFF7D0FF01F07CFF002008BD1C
:100B900000200240034A044B11681B780B44136089
:100BA000704700BF0C02002000000020014B1868B5
:100BB000704700BF0C020020074A0002D36800F40F
:100BC000E06023F4E0631B041B0C43F0BF6343F4B9
:100BD00000330343D360704700ED00E0174B70B55E
:100BE000DC684FF0FF36C4F30224C4F10705042D7E
:100BF00004F1040328BF0425062B98BF002406FA3D
:100C000005F388BF033C21EA0303A34006FA04F47A
:100C100022EA0404002843EA0403A8BF00F160406C
:100C20004FEA0313B8BF064ADBB2B5BF00F00F00AE
:100C300000F56140135480F8003370BD00ED00E012
:100C400014ED00E00123420900F01F0003FA00F058
:100C5000014B43F82200704700E100E00138B0F199
:100C6000807F0AD2F021064B064A586082F8231092
:100C70000020072298601A6070470120704700BF6B
:100C800010E000E000ED00E02DE9F74F00221646ED
:100C9000654BDFF8A4C1DFF8A4E14FF001080C6850
:100CA00008FA06F808EA0404A0457ED14D68122D22
:100CB00000F0AE8000F28780022D00F0A6807BD885
:100CC000002D00F08D80012D00F09D804FF00F0968
:100CD000FF2C93BF824606F18045083DD0F800B056
:100CE00092BFB500D0F804B0AD0009FA05F82BEAC0
:100CF000080802FA05F588BF00F1040A48EA05056C
:100D0000CAF80050D1F804A01AF0805F4DD0474FC8
:100D100026F00308BD6908F1804845F00105BD6172
:100D2000BD6908F5803805F00105019506F0030B53
:100D3000019D4FEA8B0BD8F8085009FA0BF925EA08
:100D400009093B4DA84268D005F58065A84266D0E8
:100D500005F58065A84264D005F58065A8420CBF02
:100D60000325042505FA0BF545EA0905C8F80850DE
:100D70001D681AF4803F14BF2543A5431D605D68BC
:100D80001AF4003F14BF2543A5435D609D681AF423
:100D9000801F14BF2543A5439D60DD681AF4001F22
:100DA00014BF2C4325EA0404DC600136102E7FF4C6
:100DB00074AF03B0BDE8F08F032D22D0112D85D183
:100DC000CA68043282E71B4FBD4209D012D8DFF84F
:100DD00070904D4504D009F580394D457FF476AFCC
:100DE0008A68C2B1012A0CBFC0F81080C0F8148014
:100DF00008226BE76545F3D07545F1D0DFF84490E4
:100E0000EBE7002262E7CA6860E7CA6808325DE77C
:100E1000CA680C325AE7042258E70025A2E70125E8
:100E2000A0E702259EE700BF000401400010024039
:100E300000080140000021100000311000003210B5
:100E400000001110000022100268536913F480633F
:100E50000DD06FF4806353610423202203640023C8
:100E6000036380F83C3080F83D200120704718462D
:100E700070472DE9F0410446164698468FB2256822
:100E8000686937EA000013D06B695A0512D52B68E0
:100E9000202243F400732B606FF480636B610423A2
:100EA000236400230120236384F83C3084F83D2030
:100EB000BDE8F081731CE3D046B9002320222363F0
:100EC00084F83C3084F83D200320F1E7FFF76EFE04
:100ED000A0EB0800B042D2D9EFE72DE9F843054670
:100EE00090461F46089E4FEA11498CB22968B9F115
:100EF000010F0CBF4B698B6934EA03030CBF01235C
:100F00000023984501D000200CE07B1CEFD05FB996
:100F10000023202203202B6385F83C3085F83D20F8
:100F200085F83E30BDE8F883FFF740FE801BB842ED
:100F3000DCD9EDE770B504460D46164623685B69BB
:100F40001B0601D5002012E02046FFF77DFFA8B95F
:100F50006A1CF3D065B9236C202243F0200323647C
:100F600000230320236384F83C3084F83D2070BDC7
:100F7000FFF71CFE801BA842E0D9ECE70120F6E752
:100F80002DE9FF4115460268984613680B9E43F40D
:100F9000807313600F4600960A9B00224FF00111E8
:100FA0000446FFF79AFF68B9236807F0FE071F6140
:100FB0000A9A33461A492046FFF75BFF30B1236C8B
:100FC000042B18D0032004B0BDE8F08123680390FF
:100FD0005A690A9903929B69324603932046039B00
:100FE000FFF7A8FF48B1236C042BEBD122681368EC
:100FF00043F4007313600120E5E7B8F1010F2368A3
:1010000002D1EDB21D61DEE72A0A1A610A99324661
:101010002046FFF78FFF0028E5D12368F1E700BFE6
:10102000020001002DE9FF419846036816461A6840
:101030000B9D42F480621A601A680F4642F4807277
:101040001A604FF0011100950A9B00220446FFF739
:1010500044FF80B92368FFB207F0FE021A612D49F0
:101060002B460A9A2046FFF704FF40B1236C042B5D
:1010700001D1012000E0032004B0BDE8F081236825
:1010800003905A690A9903929B692A460393204662
:10109000039BFFF74FFF40B1236C042BEBD1226879
:1010A000136843F400731360E3E7B8F1010F23689A
:1010B00024D1F6B21E612A460A992046FFF73AFF6C
:1010C00002460028E8D1216820460B6843F480736B
:1010D0000B6000950A9B4FF00111FFF7FEFE002800
:1010E000C9D1236847F001071F610A9A2B460949B5
:1010F0002046FFF7BEFE0028B8D1BDE7320A1A61CC
:101100000A992A462046FFF715FF0028C4D1236814
:10111000CFE700BF0200010070B504460D46164639
:101120002068436913F0400301D000200DE04269BC
:10113000D2060BD56FF010024261202201202364F9
:1011400084F83C30236384F83D2070BD5DB9236C86
:10115000032043F020032364202384F83D30002340
:1011600084F83C30F1E7FFF721FD801BA842D7D976
:10117000EDE770B504460D46164623685B695B07CC
:1011800001D5002012E02046FFF75EFEA8B96A1CD8
:10119000F3D065B9236C202243F02003236400239D
:1011A0000320236384F83C3084F83D2070BDFFF7B2
:1011B000FDFC801BA842E0D9ECE70120F6E7000027
:1011C00038B5044608B9012038BD90F83D3003F029
:1011D000FF021BB980F83C2001F076FC2423226832
:1011E00084F83D30136823F00103136000F092FC93
:1011F00063682F4A934230D82E4A9042E3D92E4A50
:101200002168B0FBF2F24A6001320A62284A0138D2
:10121000934232D85B00B0FBF3F0431CC3F30B03E3
:10122000042B38BF0423CB61D4E9073213430B608E
:10123000D4E9032313438B60D4E905321343CB6015
:101240000B68002043F001030B602023206484F826
:101250003D30206384F83E00B6E7184A9042B2D988
:10126000154D4FF49672B0FBF5F521686A434D6059
:101270004FF47A75B2FBF5F2C6E7A26852B903EBF8
:101280004303B0FBF3F0431CC3F30B036BB143F414
:101290000043C8E719225343B0FBF3F0431CC3F3E8
:1012A0000B0313B143F44043BDE70123BBE700BF89
:1012B000A08601007F841E0040420F00FF083D0011
:1012C0002DE9F34704469A46884691460C9EFFF75F
:1012D0006DFC94F83D300546202B03D0022002B06F
:1012E000BDE8F0870090192301223E492046FFF710
:1012F000F4FD0028F2D194F83C30012BEED001230C
:1013000084F83C30236800271A684146D20758BF4A
:101310001A6820465CBF42F001021A601A6822F483
:1013200000621A60212384F83D30402384F83E3067
:101330000A9B27646362BDF82C30CDE900656385A4
:10134000294B4A46E362638D23855346FFF718FE17
:1013500000282AD0236C84F83C70042B07D101208C
:10136000BDE7FFF7E7FD20B1236C042B34D0032049
:10137000B5E7616A27684B1C63620B78228D3B617D
:10138000638D501E013B9BB263857B6980B25B0716
:1013900020850AD548B18B1C63624B78023A3B61C9
:1013A000638D2285013B9BB26385238D2A4631469E
:1013B0002046002BD5D1FFF7DCFE0028D4D12268CF
:1013C000136843F400731360202384F83C0084F80E
:1013D0003D3084F83E0082E72268136843F40073CE
:1013E0001360BCE7020010000000FFFF2DE9F0478A
:1013F000044686B09A460D469146109FFFF7D6FBED
:1014000094F83D300646202B04D00225284606B02D
:10141000BDE8F08700901923012280492046FFF79C
:101420005CFD0028F1D194F83C30012BEDD0012374
:1014300084F83C3023684FF000081A682046D10732
:1014400058BF1A6829465CBF42F001021A601A6848
:1014500022F400621A60222384F83D30402384F88D
:101460003E300E9BC4F840806362BDF83C30CDE94D
:10147000007663856A4B4A46E362638D2385534653
:10148000FFF7D0FD054630B1236C84F83C80042B77
:101490003DD10125BAE7228D236892B902905A699D
:1014A00002929A690292029A1A6842F400721A60D1
:1014B000202384F83D30002384F83E3084F83C300B
:1014C000A4E7012A25D11A6822F480621A6072B654
:1014D000236803905A6903929A690392039A1A68DF
:1014E00042F400721A6062B6DFF83881238D002B57
:1014F000DED0032B77D8012B27D132463946204640
:10150000FFF70AFE00283FD0236C202BC1D1032512
:101510007CE7022A1A680ED142F400621A6072B6A1
:10152000236804905A6904929A690492049A1A688A
:1015300022F48062D6E742F480621A6005905A690C
:1015400005929B690593059BCEE7022B00963B46CF
:101550004FF000024146204624D1FFF7BEFC002890
:10156000D5D172B623681A6842F400721A601A69FB
:10157000636A591C61621A70238D013B2385638D58
:10158000013B9BB2638562B623681A69636A591C82
:1015900061621A70238D013B2385638D013B9BB2F1
:1015A0006385A3E7FFF799FC02460028AFD12168C5
:1015B0000B6823F480630B6072B623681969636A51
:1015C000581C60621970238D0096013B2385638D42
:1015D0004146013B9BB2638520463B46FFF77DFCBD
:1015E0000028BFD093E7324639462046FFF794FDE6
:1015F000002889D123681A69636A591C61621A70CC
:10160000238D013B2385638D013B9BB2638523685A
:101610005A6952077FF56AAFB7E700BF02001000B2
:101620000000FFFF0400010003682DE9F341DB0720
:10163000054610D42B689F075ED42B68190700F16C
:1016400095802B685A0700F1BF80EA69002A40F0B4
:101650002D81002014E0904C636803F00C03042BF0
:1016600007D0636803F00C03082B0CD16368DE031A
:1016700009D523689C03DDD56B68002BDAD10120E6
:1016800002B0BDE8F0816B68B3F5803F10D12368EC
:1016900043F480332360FFF789FA064623689803F2
:1016A000C8D4FFF783FA801B6428F7D90320E7E743
:1016B0009BB9236823F480332360236823F48023B9
:1016C0002360FFF773FA064623689903B2D5FFF744
:1016D0006DFA801B6428F7D9E8E7B3F5A02F2368DB
:1016E00003D143F480232360D1E723F480332360C4
:1016F000236823F48023CDE7674C636813F00C0F55
:1017000007D0636803F00C03082B10D16368DA0379
:101710000DD423689B0702D52B69012BAFD1236819
:101720006A6923F0F80343EAC203236085E72A6964
:101730005A4B6AB101221A60FFF738FA064623684D
:101740009F07ECD4FFF732FA801B0228F7D9ADE7E8
:101750001A60FFF72BFA0646236898077FF56DAFEE
:10176000FFF724FA801B0228F6D99FE7AA694A4CA2
:101770004B4BDAB101221A60FFF718FA0646636A8A
:101780009B070DD54FF4FA52464B1B68B3FBF2F39F
:10179000019300BF019B5A1E0192002BF9D150E723
:1017A000FFF704FA801B0228E9D97FE71A60FFF7E8
:1017B000FDF90646636A9F077FF543AFFFF7F6F929
:1017C000801B0228F6D971E7334CE369D80024D492
:1017D0000127E36943F08053E361E36903F0805339
:1017E0000093009B304E3368D90518D5EB68012B68
:1017F00026D1236A43F001032362FFF7D7F941F2B0
:1018000088368046236A9B073FD5002F3FF41DAFE3
:10181000E36923F08053E36117E70027E2E73368C9
:1018200043F480733360FFF7C1F980463368DA050B
:10183000DCD4FFF7BBF9A0EB08006428F6D935E744
:10184000ABB9236A41F2883823F001032362236A8B
:1018500023F004032362FFF7A9F90646236A9807D9
:10186000D3D5FFF7A3F9801B4045F7D91EE7052B19
:10187000236A03D143F004032362BAE723F0010390
:101880002362236A23F00403B6E7FFF78FF9A0EB86
:101890000800B042B6D909E70010024000004242F9
:1018A000800442420800002000700040224C63681F
:1018B00003F00C03082B3FF4E2AE00231F4E022A74
:1018C00033602BD1FFF772F90746236899011FD4C3
:1018D0002B6AB3F5803F05D16268A96822F4003213
:1018E0000A436260696A62680B4322F4741213430C
:1018F000636001233360FFF759F9054623689A01B5
:101900003FF5A7AEFFF752F9401B0228F6D9CDE606
:10191000FFF74CF9C01B0228D7D9C7E6FFF746F9F5
:10192000054623689B017FF594AEFFF73FF9401B06
:101930000228F6D9BAE600BF001002406000424219
:1019400030B5184B87B002AC03F110052246186879
:101950005968083303C2AB421446F7D140F2012361
:101960001149ADF804304B6803F00C02082A17D176
:10197000C3F3834206A80244DB0312F8102C0CD5F3
:101980004B680A48C3F34043504306AA134413F874
:10199000143CB0FBF3F007B030BD05485043FAE704
:1019A0000248F8E7584E00080010024000127A0082
:1019B00000093D00534A2DE9F0411368054603F044
:1019C00007038B420E4628D329688C0732D4CA07F6
:1019D00045D44C4A136803F00703B3427FD82A6802
:1019E000494C12F0040F40F08580130706D5636858
:1019F0002A6923F4605343EAC2036360FFF7A0FF40
:101A00006368424AC3F30313D35CD840404B186069
:101A10000020FFF789F800200AE0136823F007038D
:101A20000B431360136803F007038B42CCD00120F3
:101A3000BDE8F081344B11F0040F1EBF5A6842F428
:101A4000E0625A60080742BF5A6842F460525A6026
:101A50005A68A86822F0F00202435A60B7E76A6841
:101A6000294C012A23681BD113F4003FDFD063689F
:101A700041F2883823F0030313436360FFF796F8BD
:101A80006B680746012B13D1636803F00C03042B2A
:101A90009FD0FFF78BF8C01B4045F5D90320C7E75F
:101AA000022A02D113F0007FE0E713F0020FDDE716
:101AB000022B0FD1636803F00C03082B89D0FFF7CA
:101AC00075F8C01B4045F5D9E8E7FFF76FF8C01B74
:101AD0004045E3D8636813F00C0FF6D179E713683B
:101AE00023F0070333431360136803F00703B34283
:101AF0009DD174E76368E96823F4E0630B43636096
:101B000073E700BF0020024000100240754E00083D
:101B100008000020044B054A5B68C3F30223D35C32
:101B2000034A1068D840704700100240854E0008F4
:101B300008000020044B054A5B68C3F3C223D35C52
:101B4000034A1068D840704700100240854E0008D4
:101B500008000020036A70B523F001030362036AE2
:101B6000446882690D6822F073022A438D6823F06D
:101B700002032B430A4DA8420BD1CD6823F0080382
:101B80002B4324F44074D1E90556354323F0040374
:101B90002C43446082614A684263036270BD00BFA7
:101BA000002C0140036A70B523F480730362036A5A
:101BB0004468C2690D6822F073022A438D6823F4D9
:101BC000007343EA05230B4DA8420DD1CD6823F4E1
:101BD000006343EA052324F44054D1E90556354314
:101BE00023F4806344EA05144460C2614A68C26316
:101BF000036270BD002C0140036A30B523F48053AA
:101C00000362036A4468C2690D6822F4E64242EA4C
:101C100005228D6823F4005343EA0533064DA8429C
:101C200002BF4D6924F4804444EA85144460C261D3
:101C30004A680264036230BD002C01400368002042
:101C4000DA6842F00102DA601A6842F001021A60B2
:101C50007047704790F83C3070B5012B4FF002038D
:101C60001CD0012280F83D30036880F83C209A683F
:101C700022F47F4222F077029A600A68402A79D0E3
:101C800019D8102A00F093800AD8002A00F0898021
:101C9000012380F83D30002380F83C30184670BDA9
:101CA000202A00F08A80302AF2D19A6822F070024D
:101CB00042F0370236E0702A36D01BD8502A42D084
:101CC000602AE5D11C6A4D6824F01004CE681C62BD
:101CD00099691A6A21F4704122F0A00242EA0512C1
:101CE00041EA063199611A629A6822F0700242F064
:101CF000670217E0B2F5805F11D0B2F5005FC7D17F
:101D0000D1E901529C68C9682A4324F47F4442EA1D
:101D1000012222439A609A6842F4804202E09A6863
:101D200022F007029A60B3E79C68D1E90152C968C2
:101D30002A4324F47F4442EA012222439A609A68AB
:101D400042F07702EEE74C68CE68196A1D6A21F00E
:101D50000A0125F001051D629A69214322F0F00273
:101D600042EA06129A6119629A6822F0700242F001
:101D70005702D7E74C68CE68196A1D6A21F00A013C
:101D800025F001051D629A69214322F0F00242EA22
:101D900006129A6119629A6822F0700242F04702B4
:101DA000C0E79A6822F0700242F00702BAE79A6828
:101DB00022F0700242F01702B4E79A6822F0700233
:101DC00042F02702AEE770477047704770470368DC
:101DD00010B51A69044691070ED5DA6892070BD53B
:101DE0006FF002021A6101229B6902779B0777D08C
:101DF000FFF7EAFF0023237723681A69500710D5FD
:101E0000DA6851070DD56FF004021A6102229B694E
:101E1000227713F4407F204668D0FFF7D5FF0023D8
:101E2000237723681A6912070FD5DA6810070CD5D3
:101E30006FF008021A610422DB69227799072046B5
:101E40005AD0FFF7C1FF0023237723681A69D2060F
:101E500010D5DA68D0060DD56FF010021A6108228D
:101E6000DB69227713F4407F20464BD0FFF7ACFFAD
:101E70000023237723681A69D10708D5DA68D207C7
:101E800005D56FF0010220461A6100F0FDFC2368C1
:101E90001A69100608D5DA68110605D56FF08002B8
:101EA00020461A6100F09DF923681A69520608D588
:101EB000DA68500605D56FF0400220461A61FFF738
:101EC00085FF23681A69910622D5DA6892061FD524
:101ED0006FF020022046BDE810401A6100F080B982
:101EE000FFF771FF2046FFF770FF83E7FFF76BFFF7
:101EF0002046FFF76AFF92E7FFF765FF2046FFF7EE
:101F000064FFA0E7FFF75FFF2046FFF75EFFAFE744
:101F100010BD00001A4A036890420AD0B0F1804F09
:101F200007D0A2F59432904203D002F5806290422D
:101F300015D14A6823F070031343114A90420AD026
:101F4000B0F1804F07D0A2F59432904203D002F551
:101F50008062904203D1CA6823F4407313434A69F4
:101F600023F08003134303608B68C3620B688362B2
:101F7000034B984204BF0B6903630123436170471D
:101F8000002C014010B50446A0B190F83D3003F09C
:101F9000FF021BB980F83C2000F0D2FD022320682C
:101FA00084F83D30211DFFF7B5FF0123002084F8A0
:101FB0003D3010BD0120FCE710B50446A0B190F8FB
:101FC0003D3003F0FF021BB980F83C20FFF741FED3
:101FD0000223206884F83D30211DFFF79BFF012379
:101FE000002084F83D3010BD0120FCE7036A70B585
:101FF00023F010030362036A446882690D6822F4C7
:10200000E64242EA05228D6823F0200343EA0513E5
:102010000B4DA8420DD1CD6823F0800343EA051390
:1020200024F44064D1E90556354323F0400344EAE3
:102030008504446082614A688263036270BD00BFA8
:10204000002C014038B590F83C300446012B4FF08D
:10205000020025D0012384F83D0084F83C300C2A8E
:1020600018D8DFE802F0071717171E1717172F17D2
:10207000171740002068FFF76DFD236809699A690A
:1020800042F008029A619A6922F004029A619A6900
:102090000A439A610123002084F83D3084F83C0013
:1020A00038BD2068FFF7A2FF236809699A6942F4E6
:1020B00000629A619A6922F480629A619A6942EA9E
:1020C0000122E6E72068FFF76DFD23680969DA69F8
:1020D00042F00802DA61DA6922F00402DA61DA69B0
:1020E0000A43DA61D6E72068FFF786FD23680969AD
:1020F000DA6942F40062DA61DA6922F48062DA6154
:10210000DA6942EA0122ECE710B50124036A8C4047
:1021100023EA04030362036A8A401A43026210BD81
:1021200010B5044601220068FFF7EEFF2368064A57
:102130000020934202BF5A6C42F400425A641A686B
:1021400042F001021A6010BD002C0140FFF7E8BF09
:1021500090F83C30012B1FD0CB688A6823F4407381
:1021600013434A6823F4806313430A6823F400632B
:1021700013430A6923F4805313434A6923F4005339
:1021800013438A6923F440431343026853640023D2
:1021900080F83C30184670470220704790F83C3079
:1021A00010B5012B4FF0020318D080F83D300368C2
:1021B0000C685A68496822F070025A605A682243D3
:1021C0005A609A6822F080029A609A680A439A607C
:1021D000012380F83D30002380F83C30184610BDC4
:1021E000704770472DE9F84380460368C1681A6953
:1021F000192422F440520A431A6182680069D9689E
:102200000243D8F8140021F4B05121F00C0102432C
:102210000A43DA605A69D8F8181022F440720A4367
:102220005A613E4A934247D1FFF784FC04FB00F316
:10223000D8F804606427B600B3FBF6F3B3FBF7F3FA
:102240001E01FFF777FC6043D8F804309B00B0FB19
:10225000F3F5FFF76FFC6043D8F804309B00B0FB48
:10226000F3F3B3FBF7F307FB13531B013233B3FB59
:10227000F7F303F0F005FFF75DFC6043D8F80420A6
:102280009200B0FBF2F9FFF755FC6043D8F8043038
:10229000D8F800209B00B0FBF3F3B3FBF7F307FB88
:1022A00013931B013233B3FBF7F303F00F032B43FC
:1022B00033449360BDE8F883FFF72CFC04FB00F384
:1022C000D8F804606427B600B3FBF6F3B3FBF7F36A
:1022D0001E01FFF71FFC6043D8F804309B00B0FBE1
:1022E000F3F5FFF717FC6043D8F804309B00B0FB10
:1022F000F3F3B3FBF7F307FB13531B013233B3FBC9
:10230000F7F303F0F005FFF705FC6043D8F804206D
:102310009200B0FBF2F9FFF7FDFBB6E70038014091
:10232000F8B504460E4617461D4621680B6836EA86
:10233000030301D1002014E06B1CF7D095B923688A
:102340000320DA6822F4D072DA605A6922F00102BE
:102350005A61202384F8393084F83A30002384F815
:102360003830F8BDFEF722FCC01B8542DDD2E6E71F
:1023700010B5044640B390F8393003F0FF021BB9A2
:1023800080F8382000F034FC2423226884F83930A7
:10239000D368204623F40053D360FFF723FF23685C
:1023A00000201A6922F490421A615A6922F02A0226
:1023B0005A61DA6842F40052DA602023E06384F85C
:1023C000393084F83A3010BD0120FCE72DE9F041A6
:1023D0001F4690F839300446202B0D4690464CD1CC
:1023E000002948D0002A46D090F83830012B44D03C
:1023F000012380F838300023C363212380F839306B
:10240000FEF7D4FB0646A4F82480A4F82680E38CCB
:102410009BB263B93B46324640212046FFF780FF1E
:10242000A0B9202384F8380084F839300FE0E38C19
:102430003246013B9BB2E384A3688021B3F5805F01
:1024400020463B460ED1FFF76BFF10B10320BDE8DD
:10245000F0812B882268C3F308035360236943B9D2
:102460000235D4E7FFF75CFF0028EFD123682A7814
:102470005A600135CBE70120E9E70220E7E70000D9
:1024800000231946024AD1540133192BFBD170475E
:10249000BC020020F0B501244FF47A7687B00DF12C
:1024A00016030093CDE9014623467522D0211C482E
:1024B000FEF79CFF9DF81630682B2ED1002706AD45
:1024C00005F8017D23466B22D021CDE90146009518
:1024D0001348FEF7F5FE072319228DF81730D02197
:1024E0002346CDE9014600950D48FEF7E9FE234657
:1024F0001C22D021CDE90146009509488DF81770BE
:10250000FEF7DEFECDE90146009523461B22D021D1
:1025100003488DF81770FEF7D3FE07B0F0BD00BF7B
:102520001802002006234FF47A7230B587B0CDE947
:10253000013204AB00933B220123D0211F48FEF758
:1025400055FF9DF810309DF811009DF8135040EA9A
:1025500003201B4B00B218809DF812309DF81540E7
:1025600045EA0325174B2DB21D809DF8143044EA2F
:102570000324154B24B21C80FDF744FF0022134BAB
:10258000FDF7AAFFFEF780FA114B18602846FDF709
:1025900039FF00220D4BFDF79FFFFEF775FA0D4B3B
:1025A00018602046FDF72EFF0022084BFDF794FF30
:1025B000FEF76AFA084B186007B030BD1802002019
:1025C000F8010020FA010020FC0100200000103F6B
:1025D000E8020020740200203003002010B514240B
:1025E00090B02246002108A800F0E4FB224600211A
:1025F00001A800F0DFFB022401224FF48033CDE973
:102600000623CDE90D434FF4C01306A80A920F9399
:10261000FFF70AF80F238022CDE901340023214679
:1026200001A8CDE903230593FFF7C4F910B010BD4D
:1026300000237E4A80B513607D4A7E4F13607E4A38
:102640009AB013607D4A002413607D4A7D4D13606B
:102650007D4A3B6013607D4A4FF4805813607C4A8A
:102660007C4E13607C4ADFF818A21360FEF780FAF4
:10267000FFF7B4FF794B7A489A6942F020029A61D9
:102680009A6902F020020392039A9A6942F00402C6
:102690009A619A6902F004020492049A9A6942F0DB
:1026A00008029A619B696F4A03F008030593059B32
:1026B0006D4BC0E90244C0E900234FF48043C0E9F8
:1026C0000644C0E904340462FEF77AFD2146102274
:1026D00008A800F06FFB21461C220CA8CDE9064497
:1026E00000F068FB1C22214613A800F063FB4FF4A6
:1026F000FA435E492846C5E900134FF47A73AC608B
:10270000C5E90334C5E90544FFF73CFC08A92846A0
:10271000CDF82080FFF79EFA2846FFF74DFC06A96A
:102720002846CDE90644FFF739FD4FF4FA736020DF
:102730002246CDE90C030CA92846CDE90E44CDE98B
:1027400010441294FFF77EFC04220CA92846FFF7E0
:1027500079FC4FF4005313A92846CDE91834CDE98C
:102760001344CDE915441794FFF7F2FC284600F016
:1027700017FA4FF4E1333E48C0E900630C23C0E987
:102780000244C0E905340461C461FFF7F1FD102281
:10279000214613A800F00EFB4FF0804C4FF4486325
:1027A000344ECDE90C44C6E900C364233046C6E983
:1027B0000334B460B461FFF7E5FB13A93046CDF8EC
:1027C0004C80FFF747FA0CA93046CDE90C44FFF7DF
:1027D000E5FCFFF75FFE3046FFF730FA214628465A
:1027E000FFF7B4FC28460421FFF7B0FC224D234C30
:1027F000FFF798FEDAF80000FDF716FE3E68804607
:1028000030468946FDF710FE4246CDE900014B46B1
:102810002946204600F026FF4FF0FF3319222146BB
:102820001348FFF7D3FDFFF72BFEE1E73403002049
:10283000E4020020E00200202C030020DC02002043
:1028400078030020EC020020140200207002002017
:10285000D8020020003801406C0200200010024025
:102860001802002000540040801A0600002C01408D
:102870007C02002038030020684E0008BC020020C3
:102880007402002000000000734BDFF8ECC11A68EE
:102890002DE9F04FCCF80020704A714C1168714D51
:1028A00019607149DFF8D4E10868704E1060206843
:1028B0006F4F0860286885B0CEF800003068286047
:1028C000386830606B48D0F80080C7F80080DFF8C7
:1028D000B081D8F80080C0F8008000683F68366892
:1028E000D5F800B0DEF80090D1F800801568D3F874
:1028F00000A0DCF800300193FDF796FD46A3D3E974
:102900000023FDF7E9FDCDE902013846FDF78CFD16
:1029100043A3D3E90023FDF7DFFD02460B46DDE9C3
:102920000201FDF723FCCDE902013046FDF77CFDF5
:102930003DA3D3E90023FDF7CFFD02460B46DDE9B9
:102940000201FDF713FC064658460F46FDF76CFDE5
:1029500037A3D3E90023FDF7BFFD02460B463046FF
:102960003946FDF703FC064648460F46FDF75CFD79
:1029700029A3D3E90023FDF7AFFD02460B463046FD
:102980003946FDF7F3FB064640460F46FDF74CFD82
:1029900029A3D3E90023FDF79FFD02460B463046ED
:1029A0003946FDF7E3FB064628460F46FDF73CFD9A
:1029B00023A3D3E90023FDF78FFD02460B463046E3
:1029C0003946FDF7D1FB064650460F46FDF72CFD74
:1029D0001DA3D3E90023FDF77FFD02460B463046D9
:1029E0003946FDF7C3FB064601980F46FDF71CFD6F
:1029F00017A3D3E90023FDF76FFD02460B463046CF
:102A00003946FDF7B1FBFEF73FF8206005B0BDE8A1
:102A1000F08F00BFAFF30080613255302AA9733FB9
:102A2000A54E401361C3933FD5E76A2BF6979D3FB0
:102A3000DBF97E6ABC74933FDBF97E6ABCF402402A
:102A4000508D976E128302408E75711B0DE0F03F22
:102A5000789CA223B9FCC73FD80200207002002056
:102A6000E0020020DC020020140200202C030020E1
:102A7000E4020020340300206C02002078030020D0
:102A8000740200200E4B82B09A6942F001029A61F2
:102A90009A6902F001020092009ADA6942F08052CB
:102AA000DA61DB69074A03F080530193019B5368A5
:102AB00023F0E06343F00073536002B0704700BF3F
:102AC000001002400000014010B5044686B01022FC
:102AD000002102A800F06EF92268154B9A4224D119
:102AE000144C4FF44072A36902A943F00803A36198
:102AF000A369114803F008030093009B1223CDE95A
:102B0000022303230593FEF7BFF80C4A536843F0F2
:102B1000E06343F002035360E36943F40013E361AD
:102B2000E36903F400130193019B06B010BD00BFDD
:102B30000054004000100240000C01400000014021
:102B400007B50368144A93420CD1144B9A6942F4B6
:102B500000629A619B6903F400630093009B03B0D9
:102B60005DF804FBB3F1804FF9D103F50433DA6962
:102B70001C2042F00102DA610022DB69114603F0F9
:102B800001030193019BFEF729F81C2003B05DF8B7
:102B900004EBFEF757B800BF002C014000100240C4
:102BA00010B5044686B01022002102A800F002F9F8
:102BB00022680D4B9A4214D103F564439A6902A925
:102BC00042F004029A619B694FF4407203F00403DF
:102BD0000193019B02230548CDE902230593FEF7EB
:102BE00053F806B010BD00BF002C014000080140A2
:102BF00010B5044686B01022002102A800F0DAF8D1
:102C00002268194B9A422DD103F558439A6902A9BB
:102C100042F480429A619A69144802F48042009218
:102C2000009A9A6942F008029A619B69402203F077
:102C300008030193019B0223CDE90223032305939B
:102C4000FEF722F8002380210848CDE9021302A9EB
:102C50000493FEF719F8064A536843F0E06343F023
:102C60000403536006B010BD00380140000C014061
:102C7000000001407047FEE7FEE7FEE7FEE7704711
:102C800070477047FDF786BF0148FFF7A0B800BF47
:102C90003803002008B50A4B0246196809B90949EA
:102CA00019606946186802448A4206D900F058F84B
:102CB0000C2303604FF0FF3008BD1A6008BD00BF51
:102CC00000020020840300200F4B1A6842F001022A
:102CD0001A6059680D4A0A405A601A6822F08472D4
:102CE00022F480321A601A6822F480221A605A682C
:102CF00022F4FE025A604FF41F029A604FF0006205
:102D0000034B9A60704700BF001002400000FFF8BC
:102D100000ED00E0002103E00B4B5B584350043111
:102D20000A480B4B42189A42F6D30A4A02E00023A3
:102D300042F8043B084B9A42F9D3FFF7C5FF00F075
:102D400015F8FFF775FC7047F050000800000020F0
:102D5000DC010020DC01002084030020FEE70000ED
:102D6000014B1868704700BF0C00002070B50025AB
:102D70000C4E0D4CA41BA410A54209D102F05EF824
:102D800000250A4E0A4CA41BA410A54205D170BD13
:102D900056F8253098470135EEE756F82530984724
:102DA0000135F2E7E8500008E8500008E850000854
:102DB000EC50000803460244934200D1704703F8E8
:102DC000011BF9E7002B2DE9F0471E46BBBF03F1BD
:102DD00000431E4600232D2388B0149FDDE9121AFC
:102DE00027F02007462F1446109D0B7004D0452F66
:102DF00000D10135022300E0032307AA049206AAAA
:102E0000CDE902A2CDE900352246334600F0D8FCD8
:102E1000472F804602D1119BDB0726D5462F08EBB2
:102E2000050911D198F80030302B0AD10022002377
:102E300020463146FDF7B8FD18B9C5F10105CAF8BD
:102E40000050DAF800309944002200232046314631
:102E5000FDF7AAFD38B93022079B4B4505D2591C16
:102E600007911A70F8E7CDF81C904046079B159A19
:102E7000A3EB0803136008B0BDE8F087F7B500299D
:102E8000B4BF2D232B230446B8BF4942092904F8B7
:102E9000022B437021DD0DF107031F460A2691FB2B
:102EA000F6F506FB1511092D01F1300103F8011C9F
:102EB00003F1FF32294609DC3031023B02F8011CE4
:102EC000BB42224604D3101A03B0F0BD1346E6E716
:102ED00013F8012B04F8012BF2E730231944837017
:102EE000021DC170EFE700002DE9F04F91B00C46D4
:102EF0001A9F93461E46054601F016FA03681846C7
:102F00000993FDF725F900230E933B680A900733D8
:102F100023F0070303F1080294F81880D4F800A006
:102F20003A60D3E90023C4E91223D4E9127929F0E5
:102F300000430B934FF0FF32A64B38460B99FDF739
:102F400065FD68BB4FF0FF32A24B38460B99FDF789
:102F50003FFD28BB0022002338464946FDF72EFDE1
:102F600010B12D2384F843309B4F9C4BB8F1470F91
:102F700098BF1F4603234FF0000923612AF0040382
:102F8000236000965B460FAA2146284600F0E2F92E
:102F9000013040F090804FF0FF3011B0BDE8F08F6D
:102FA0003A464B4638464946FDF730FD10B18C4F46
:102FB0008C4BDBE763684AF48062591C0DA80EA9AC
:102FC00040D1062363604FF0000C0DF13303CDE9CF
:102FD000012363682260CDE9030800933A464B461B
:102FE000CDE9051C2846FFF7EDFE08F0DF03472B6F
:102FF000074609D10D9BD81C02DB6268934247DD6E
:10300000A8F102085FFA88F8B8F1650F0D9924D885
:103010000139424604F150000D91FFF72FFF0E9A3F
:1030200081461318012A236102DC2268D10701D5E9
:10303000013323619DF83330002BA2D02D2384F877
:1030400043309EE7B8F1670F00F06E81B8F1470F8B
:10305000B9D1002BB7D10123B4E7B8F1660F19D16C
:10306000002963680CDD216113B92268D20702D5FB
:1030700001330B4423610D9B4FF00009A365D9E791
:1030800013B92268D00701D50233F3E70123F1E732
:103090004FF06708DDE90D32934205DB22682361BA
:1030A000D107E8D50133E5E7002BCCBF0123C3F1FD
:1030B00002031344DEE723685A0507D423693A461E
:1030C00059462846B047013029D164E7B8F1650F69
:1030D00040F2D780D4E9120100220023FDF764FCFE
:1030E00088B30123404A59462846B04701303FF48F
:1030F00052AFDDE90D239A4202DB2368D8070ED5D3
:10310000DDE9092359462846B04701303FF443AF73
:10311000002704F11A080E9B013BBB4209DC23681F
:103120009F0700F1FD80E0680F9B9842B8BF1846EA
:1031300033E70123424659462846B04701303FF461
:103140002AAF0137E7E70D9B002B2BDC0123264A32
:1031500059462846B04701303FF41DAF0D9B23B9B7
:103160000E9B13B92368D907D9D5DDE90923594640
:103170002846B04701303FF40EAF4FF0000804F18D
:103180001A090D9B5B42434501DC0E9B97E7012327
:103190004A4659462846B04701303FF4FCAE08F194
:1031A0000108EEE70E9AA36D9A42A8BF1A46002ABC
:1031B000904607DD134659463A462846B047013047
:1031C0003FF4E9AE04F11A034FF0000A28EAE87868
:1031D0000B9315E0FFFFEF7F914E00088D4E000826
:1031E000994E0008954E00089D4E000801230B9A49
:1031F00059462846B04701303FF4CDAE0AF1010AE6
:10320000D4F85890A9EB08035345EFDCDDE90D2312
:103210009A424F4414DB2368DA0711D40E9B0D99B0
:10322000A3EB0902A3EB01099145A8BF9146B9F1AF
:10323000000F0DDC002729EAE97904F11A0818E0EB
:10324000DDE9092359462846B0470130E6D1A2E618
:103250004B463A4659462846B0470130EAD19AE6ED
:103260000123424659462846B04701303FF493AE09
:103270000137DDE90D239B1AA3EB0903BB42EFDC09
:103280004DE70E9A012A01DCDB0738D501233A46C7
:1032900059462846B04701303FF47DAEDDE90923A9
:1032A00059462846B047013007F101073FF473AE95
:1032B000D4E912010E9B002203F1FF380023FDF731
:1032C00073FBC0B943463A4659462846B0470130D9
:1032D0000DD160E60123424659462846B0470130E9
:1032E0003FF459AE01370E9B013BBB42F2DC4B462B
:1032F00004F15002E4E6002704F11A08F3E7012381
:10330000E1E70123424659462846B04701303FF4E1
:1033100042AE0137E3680F9A9B1ABB42F1DC02E729
:10332000002704F11908F5E7002B3FF494AE4FF0A5
:10333000000CCDE9051C0DF133012260CDE9030835
:10334000CDE9012100933A464B462846FFF73AFD66
:1033500007464FE62DE9F04791461F468A680B69FC
:1033600006469342B8BF1346C9F8003091F843208F
:103370000C46DDF8208012B10133C9F80030236813
:10338000990642BFD9F800300233C9F800302568E9
:1033900015F0060507D104F1190AE368D9F80020F1
:1033A0009B1AAB4229DC94F843302268003318BFE3
:1033B000012392062ED404F1430239463046C04719
:1033C000013021D02368E56803F00603042B18BF01
:1033D0000025D9F800204FF0000908BFAD1AA368F6
:1033E000226908BF25EAE5759342C4BF9B1AED1810
:1033F0001A344D451AD1002008E0012352463946BF
:103400003046C047013003D14FF0FF30BDE8F087B0
:103410000135C2E73020E11881F843005A1C94F8C6
:1034200045102244023382F84310C4E701232246A8
:1034300039463046C0470130E6D009F10109D8E7E6
:103440002DE9F04301F1430C0C46097E85B06E294D
:103450001746064698460C9A00F0B38022D8632996
:1034600036D00AD8002900F0B980582900F08380AE
:1034700004F1420584F8421032E0642901D0692940
:10348000F6D120681368050603F104012AD51B68EC
:103490001160002B03DA2D225B4284F843206F4831
:1034A0000A2239E0732900F09D8008D86F2920D0C6
:1034B0007029DDD1236843F02003236003E07529E0
:1034C00017D07829D4D17823654884F8453055E061
:1034D000136804F14205191D1B68116084F842301D
:1034E00001238CE01B6810F0400F116018BF1BB265
:1034F000CFE713682568181D1060280601D51B68E2
:1035000002E06806FBD51B886F2914BF0A22082237
:103510005248002184F843106568002DA560C0F270
:103520009580216821F004012160002B3DD1002D00
:1035300040F08E806546082A0BD12368DB0708D54A
:10354000236962689A42DEBF302305F8013C05F129
:10355000FF35ACEB05032361CDF800803B4603AAA1
:1035600021463046FFF7F6FE01304DD14FF0FF30D7
:1035700005B0BDE8F083394884F845101368216828
:103580001D1D1B6815600A060BD5CA0744BF41F014
:10359000200121601BB9226822F020022260102243
:1035A000B7E74D0648BF9BB2EFE76546B3FBF2F1C4
:1035B00002FB1133C35C05F8013D0B460029F5D130
:1035C000B9E713682568181D6169106028061B6833
:1035D00001D5196002E06A06FBD519800023654613
:1035E0002361B9E71368191D11601D686268002125
:1035F000284600F0AFFE08B1401B6060636823619D
:10360000002384F84330A7E723692A463946304629
:10361000C0470130AAD023689B0713D4E068039BFE
:103620009842B8BF1846A3E701234A4639463046B8
:10363000C04701309AD00135E368039A9B1AAB4228
:10364000F2DCEBE7002504F11909F5E7002BACD11A
:10365000037804F1420584F842306CE79F4E00087D
:10366000B04E00080EB46FF0004100B59CB01DAB29
:1036700002900690079104910848094953F8042BD9
:103680000591006802A9019301F068FA0022029BEB
:103690001A701CB05DF804EB03B070470C000020FA
:1036A0000802FFFF2DE9F74F03690C698046A3422A
:1036B000C0F28480013C01F1140700F1140657F8B0
:1036C000245056F824000135B0FBF5F54FEA840C80
:1036D00006EB0C0307EB0C0901939DB34FF0000AB6
:1036E0003846B646D34650F8042B93B205FB03A3E5
:1036F000120C4FEA134A05FB02A29BB2ABEB030389
:10370000DEF800B04FEA124A1FFA8BFB5B441FFA47
:1037100082FBDEF800208145CBEB124202EB234214
:103720009BB243EA02434FEA224B4EF8043BDAD203
:1037300056F80C3033B9019B043B9E421A4631D3F4
:10374000C8F81040404601F033F8002826DB304628
:103750004FF0000C013557F8041BD0F800E08BB295
:10376000ACEB03031FFA8EF213440A0CC2EB1E42A9
:1037700002EB23429BB243EA0243B9454FEA224C93
:1037800040F8043BE7D256F8242006EB84032AB91C
:10379000043B9E421A460BD3C8F81040284603B09B
:1037A000BDE8F08F1268043B002AC9D1013CC4E790
:1037B0001268043B002AEFD1013CEAE70020EEE763
:1037C0002DE9F04F16461F46456A95B00446DDF8D0
:1037D0008480CDE902673DB9102000F0B3FD60623E
:1037E000C0E901550560C560636A196851B15A683E
:1037F000012393404A608B60204600F0F8FD0022D0
:10380000636A1A603B1EAFBF0023012223F000430E
:103810000393ACBFC8F80030C8F80020AE4BDDF809
:103820000C8033EA08031BD142F20F73209A136015
:10383000029B23B9C8F31300002800F04585229BA2
:1038400053B9A64B21E0A64B06930833229A136086
:10385000069815B0BDE8F08FA04B06930333F5E74B
:10386000DDE902670022002330463946FDF79CF867
:10387000824660B10123209A1360229B002B00F046
:103880002085984B229A1360013B0693E0E712AB28
:10389000019313AB009332463B46204601F000F8FB
:1038A000C8F30A558346002D7DD0B046C7F31303F5
:1038B00043F07F5949F44019A5F2FF35CDF840A0F7
:1038C0000022894B40464946FCF74EFC7CA3D3E9D5
:1038D0000023FCF701FE7CA3D3E90023FCF746FCA0
:1038E000064628460F46FCF78DFD79A3D3E9002351
:1038F000FCF7F2FD02460B4630463946FCF736FC33
:1039000006460F46FDF798F800228246002330460F
:103910003946FDF753F848B15046FCF773FD32467F
:103920003B46FDF741F808B90AF1FF3ABAF1160F24
:103930005AD8DDE902236D4901EBCA01D1E9000142
:10394000FDF75AF8002851D000230AF1FF3A0D93F1
:10395000129B5D1B6B1E079343BF0023C5F101093A
:1039600007934FF00009BAF1000F41DB079BCDF838
:1039700030A053440793002308931E9B092B00F2A9
:103980008F80052BC4BF043B1E931E9BC8BF002520
:10399000A3F10203D8BF0125032B00F28D80DFE8DD
:1039A00003F07B7D2F6FDDE912531D4405F2324099
:1039B000202813DDC0F14000029B08FA00F805F250
:1039C000124023FA00F048EA0000FCF70BFD012347
:1039D0008046A1F1F879013D109371E7029BC0F197
:1039E000200003FA00F0F0E70123B0E70D90AFE705
:1039F000CAF1000308930023A9EB0A090C93BCE762
:103A0000012309931F9B002B74DD98460493002229
:103A1000666A7260042202F11400984271686ED9DD
:103A2000204600F0B0FC636A30601B68B8F10E0FEE
:103A3000069300F2ED80002D00F0EA80DDE902231C
:103A4000BAF1000FCDE90E2377DD284A0AF00F0303
:103A50004FEA2A1602EBC303F006D3E90023CDE9AF
:103A60000A2368D5DDE90E01214B0325D3E908239C
:103A7000FCF75CFECDE9020106F00F061C4F4FE09B
:103A8000012309931F9B534403F101080493434608
:103A9000012BB8BF0123BAE70023B2E70023F0E708
:103AA0000125002309951E934FF0FF330022049354
:103AB000984612231F92AAE701230993F4E700BF57
:103AC00061436F63A787D23FB3C8608B288AC63F24
:103AD000FB799F501344D33F0000F07FCA4E00088B
:103AE000C14E00089E4E00080000F83FF84E000846
:103AF000D04E00080123049398461A46DAE70131B4
:103B00007160520087E7F10708D5DDE90A01D7E9BE
:103B10000023FCF7E1FCCDE90A01013576100837F6
:103B2000002EF0D1DDE90A23DDE90201FCF7FEFDFC
:103B3000CDE902011BE00225A0E700F0A480DDE949
:103B40000E01CAF10006A04B06F00F0203EBC20300
:103B5000D3E90023FCF7C0FC02250023CDE90201D4
:103B60009A4F3611002E40F08380002BE0D10D9B40
:103B7000002B00F08A80DDE90223CDE90A23DDE98C
:103B80000A010022924BFCF719FF00287DD0B8F102
:103B9000000F7AD0049B002B36DDDDE90A010022FC
:103BA0008C4BFCF799FCCDE90201049E0AF1FF372A
:103BB00001352846FCF726FCDDE90223FCF78CFCE6
:103BC0000022854BFCF7D2FAA1F15075CDE90A012C
:103BD0000B95002E5CD1DDE9020100227F4BFCF742
:103BE000C3FA0A9A2B46CDE90201FCF705FF00282B
:103BF00040F08182DDE902010A9A05F10043FCF7F9
:103C0000DDFE002840F07582DDE90E23CDE90223B8
:103C1000139B002BC0F24B81BAF10E0F00F34781CA
:103C2000694B03EBCA03D3E90023CDE904231F9BAF
:103C3000002B80F2D780B8F1000F00F3D38040F062
:103C40005782DDE904010022644BFCF745FCDDE905
:103C50000223FCF7C7FE46464746002840F02D8267
:103C6000069B069A5D1C31230AF1010A137028E2B3
:103C7000F20705D5D7E90023FCF72EFC0123013517
:103C8000761008376EE7022571E75746464690E7FB
:103C90004D4B03EBC60353E90201099B002B48D0AF
:103CA00002460B4600204E49FCF740FDDDE90A23A1
:103CB000FCF75AFACDE90A01069DDDE90201FCF79D
:103CC000BBFE1190FCF79EFB02460B46DDE90201AC
:103CD000FCF74AFA119BCDE90201303305F8013BAC
:103CE000DDE90A23FCF76AFE002863D1DDE902233F
:103CF00000203749FCF738FADDE90A23FCF75EFEBD
:103D0000002840F0B580069BEB1A9E427FF77CAFFF
:103D1000DDE90A0100222F4BFCF7DEFB0022CDE992
:103D20000A01DDE902012B4BFCF7D6FBCDE90201CC
:103D3000C3E7DDE90A23FCF7CFFB069BCDE90A01C7
:103D40009D191E46DDE90201FCF776FE1190FCF795
:103D500059FB02460B46DDE90201FCF705FA119B0F
:103D6000CDE90201303306F8013BAE424FF00002CC
:103D700024D1DDE90A011A4BFCF7F8F902460B469B
:103D8000DDE90201FCF738FE002871D1DDE90A23E4
:103D900000201349FCF7E8F902460B46DDE9020171
:103DA000FCF70CFE00283FF42FAF15F8013C6A1E0B
:103DB000302B01D0BA464AE01546F6E7054BFCF732
:103DC0008BFBCDE90201BDE7F84E0008D04E00089C
:103DD0000000F03F0000244000001C4000001440A0
:103DE0000000E03F069DDDE90267DDE9042330467F
:103DF0003946FCF79BFCFCF71FFE8146FCF702FBF3
:103E0000DDE90423FCF768FB02460B4630463946E1
:103E1000FCF7AAF909F1300605F8016B069E024687
:103E2000AE1BB0450B4635D1FCF7A0F9DDE9042304
:103E300006460F46FCF7E0FDC8B9DDE9042330462D
:103E40003946FCF7B1FD10B119F0010F0FD15946F9
:103E5000204600F0CCFA0023209A2B700AF10103CF
:103E60001360229B002B3FF4F3AC1D60F0E4574637
:103E700015F8012C6B1E392A06D1069A9A4207D1F1
:103E800030231370134601371A7801321A7091E704
:103E90001D46EDE70022994BFCF71EFB0022002394
:103EA00006460F46FCF780FD00289ED0CFE7099A12
:103EB000002A00F088801E9A012A6DDC109A002AE0
:103EC00066D003F233434D46089E079A01211A44F7
:103ED00020469944079200F02AFB0746002D0BDD8F
:103EE000079B002B08DDAB42A8BF2B46079AA9EB26
:103EF0000309ED1AD31A0793089BEBB1099B002B1A
:103F000065D08EB139463246204600F0AFFB5A46A6
:103F100001460746204600F013FB59460A9020460A
:103F200000F065FA0A9B9B46089B9A1B04D05946F1
:103F3000204600F09BFB83460121204600F0F7FA63
:103F40000C9B0646002B00F0C6811A46014620460F
:103F500000F08CFB1E9B0646012B3EDC029B002BD7
:103F600037D1039BC3F31303002B34D1039B23F0FE
:103F700000431B0D1B052BB1079B09F10109013300
:103F80000793012308930C9B002B28D101202EE0DE
:103F9000129BC3F1360396E7089B08F1FF36B34244
:103FA000B7BF089B9E1BF21A0C9BBFBF08969B18BD
:103FB0000C930026B8F1000FB9BFA9EB0805002348
:103FC0004D46434681E7089E4D46099F86E7089A7D
:103FD000ADE70023D6E7029BD4E7002308933369BB
:103FE00006EB8303186900F054FAC0F12000079B28
:103FF000184410F01F0047D0C0F12003042B3BDD14
:10400000079BC0F11C008144054403440793B9F1A8
:10401000000F05DD59464A46204600F075FB8346F1
:10402000079B002B05DD31461A46204600F06CFB4D
:1040300006460D9B53B33146584600F0B9FB0028A5
:1040400024DA002359460A22204600F0E7F9099BAA
:104050000AF1FF3A8346002B00F0448100233946E1
:104060000A22204600F0DAF9049B0746002B4DDCBB
:104070001E9B022B4ADD11E0C9D0079A1C331A445B
:1040800099441D441346C1E70346F6E7B8F1000F13
:1040900036DC1E9B022B33DDCDF81080049B63B908
:1040A00031460522204600F0B9F901460646584639
:1040B00000F07EFB00283FF7D3AD1F9B069D6FEA03
:1040C000030A4FF000093146204600F090F9002F16
:1040D0003FF4BDAEB9F1000F05D0B94503D0494654
:1040E000204600F084F93946204600F080F9AEE61B
:1040F00000263746E1E7BA463746B1E500002440DE
:10410000099BCDF81080002B00F0F380002D05DD19
:1041100039462A46204600F0F7FA0746089B002B4E
:104120004CD07968204600F02EF905463A6907F12F
:104130000C01023292000C3000F01AF901222946DB
:10414000204600F0E1FAB9460746069B0793029B1A
:1041500003F00103089331465846FFF7A3FA494696
:10416000054600F13008584600F022FB3A4602901E
:104170003146204600F036FBC368024603BB0146C9
:104180000990584600F014FB0346099A1146204650
:10419000099300F02CF9099BA3B91E9A92B9089AC9
:1041A00082B9B8F1390F29D0029B002B01DD05F14E
:1041B0003108079B5D1C83F8008084E73846C2E71E
:1041C0000123E3E7029A002A04DB23D11E9A0ABBEB
:1041D000089AFAB9002BECDD59460122204600F07E
:1041E00093FA3146834600F0E3FA002803DCE0D17D
:1041F00018F0010FDDD0B8F1390FD8D1079B079A1D
:104200005D1C3923137015F8013C6A1E392B4DD003
:10421000013352E0079A002B02F1010506DDB8F1E7
:10422000390FEBD008F10108079BC4E7069B049AFD
:10423000EB1A934205F8018C21D0594600230A223B
:10424000204600F0EBF8B94583464FF000034FF0ED
:104250000A024946204605D100F0E0F881460746AB
:10426000079578E700F0DAF83946814600230A22FC
:10427000204600F0D3F80746F2E74FF00009594610
:104280000122204600F040FA3146834600F090FAC1
:104290000028B8DC02D118F0010FB4D115F8013CA8
:1042A0006A1E302B7FF40FAF1546F7E7069B93424B
:1042B00005D13123069A0AF1010A137003E7154666
:1042C000A1E7174BFFF7E1BA229B002B7FF4BBAAB3
:1042D000144BFFF7DABA1E9B012B7FF73FAE0C9B06
:1042E000089353E6049B002B03DC1E9B022B3FF735
:1042F000D5AE069D31465846FFF7D4F9069B00F12E
:10430000300805F8018B049AEB1A9A42B5DD59463C
:1043100000230A22204600F081F88346EAE700BF26
:104320009D4E0008C14E0008044B1B68186A044BE0
:10433000002808BF1846F030704700BF0C0000206E
:1043400070000020024B0146186800F053BB00BF0C
:104350000C00002010B5C9B202449042034601D1BE
:10436000002303E01C7801308C42F6D1184610BDC2
:1043700010B5431E0A44914200D110BD11F8014B03
:1043800003F8014FF7E770B5456A04460E463DB99C
:104390001020FFF7D7FF6062C0E901550560C560D6
:1043A000656AEB6883B1636ADB6853F82600B8B9C5
:1043B000012101FA06F56A1D9200204600F0BFFABD
:1043C00060B1C0E901650EE021220421204600F021
:1043D000B6FA636AE860DB68002BE4D1002070BDA8
:1043E000026843F826200023C0E90333F7E770B5DD
:1043F000446A06460D463CB91020FFF7A3FF7062E1
:10440000C0E901440460C4603DB1736A6A68DB6856
:1044100053F82210296043F8225070BD2DE9F04175
:104420001F4606460C4600230D6901F1140CDCF80A
:104430000000013381B202FB0171000C0F0C02FB82
:10444000007089B201EB00419D424FEA10474CF8E1
:10445000041BECDCD7B1A368AB4212DC61683046C8
:104460000131FFF790FF8046226904F10C0102320E
:1044700092000C30FFF77CFF21463046FFF7B7FF74
:10448000444604EB850301355F6125612046BDE8A4
:10449000F081020C12040346B2B90304102013F099
:1044A0007F4F04BF1B02083013F0704F04BF1B0185
:1044B000043013F0404F04BF9B000230002B06DB9A
:1044C0005B0003D5013070470020E8E720207047EB
:1044D0000368014613F007020BD0DA0723D49807CC
:1044E00049BF5B089B0801200B605CBF0B6002208A
:1044F000704798B2A8B910201B0C13F0FF0F04BF2F
:104500001B0A08301A0704BF1B0904309A0704BFAE
:104510009B080230DA0702D45B0806D001300B603A
:1045200070471046E9E7002070472020704710B51B
:104530000C460121FFF727FF01224461026110BDF3
:104540002DE9F74F14460A69236988469A42BEBF8F
:104550000B46A0461C46D8F81070D4F81090D8F836
:104560000830D8F8041007EB0906B342B8BF013190
:10457000FFF709FF00F114052B46002205EB860E1C
:10458000734516D304F1140208F1140102EB8903F8
:1045900001EB87070093009B019293420CD8002EF9
:1045A00003DD5EF8043D002B5DD0066103B0BDE87D
:1045B000F08F43F8042BE3E7B2F800B0BBF1000F33
:1045C00023D08946AC464FF0000859F8044BDCF87C
:1045D00000A0A3B21FFA8AFA0BFB03A34FEA144A06
:1045E000DCF8004043444FEA14480BFB0A84E246DF
:1045F00004EB13449BB243EA04434F454FEA14488B
:104600004AF8043B2BD8CCF80480019B0432B3F861
:1046100002A0BAF1000F20D08946A8464FF0000B47
:104620002B68B9F800C0B8F802409BB20AFB0C44F2
:10463000C4465C4443EA04434CF8043B59F8043B49
:10464000B8F804B01B0C0AFB03B34F4503EB14434B
:104650004FEA134B05D8C8F8043004359BE7D4461D
:10466000B3E7E046DDE7013E99E700002DE9F843B6
:10467000154612F0030206460F4607D0214C013AB8
:10468000002354F82220FFF7C9FE0746AD1035D0AD
:10469000746A3CB91020FFF755FE7062C0E901440E
:1046A0000460C460D6F82480D8F808404CB940F2C1
:1046B00071213046FFF73BFF00230446C8F808008D
:1046C00003604FF00008EB070AD539462246304612
:1046D000FFF736FF814639463046FFF788FE4F46E2
:1046E0006D100BD0206838B9224621463046FFF7BE
:1046F00027FF2060C0F800800446E4E73846BDE8A4
:10470000F88300BFC04F00082DE9F0470C4607466C
:10471000164623694FEA621A0AEB03094968A3683F
:1047200009F10105AB4232DB3846FFF72CFE0023CE
:1047300080461A4600F1140153452BDB20692AEA12
:10474000EA7A04F1140316F01F0201EB8A0103EB6D
:10475000800C25D00020C2F1200E8A461E689640AB
:1047600030434AF8040B53F8040B9C4520FA0EF032
:1047700014D8486008B109F10205013D3846C8F86F
:1047800010502146FFF733FE4046BDE8F087013167
:104790005B00C7E741F823200133CDE75146DCE752
:1047A000043953F8042B9C4541F8042FF9D8E4E769
:1047B00003690A6930B59B1A0CD192001430143188
:1047C0008418114454F8045D51F8042D954203D027
:1047D00005D30123184630BDA042F3D3FAE74FF0CA
:1047E000FF33F7E72DE9F0470D4607461146284607
:1047F0001446FFF7DDFF061E08D131463846FFF7A5
:10480000C2FD0123C0E90436BDE8F087A4BF2346FA
:104810002C4638466168A6BF1D4600260126FFF7D4
:10482000B2FD4FF0000EC6602B69266904F1140238
:1048300005F1140902EB860709EB830800F1140166
:1048400052F804AB59F8045B1FFA8AF37344ACB214
:104850001B1B2C0CC4EB1A4404EB23449BB24FEA01
:10486000244EC84543EA0444944641F8044BE7D833
:10487000BC4504D351F8043D83B10661C4E75CF83C
:10488000044BA2B27244131403EB144392B242EAF3
:1048900003424FEA234E41F8042BE9E7013EE9E7E2
:1048A0002DE9F3411C46DDE9086501219046FFF73B
:1048B0006AFDC4F31302C4F30A54074634BB0192E1
:1048C000B8F1000227D002A840F8082DFFF700FE3B
:1048D0000099F0B1019AC0F1200302FA03F30B43EF
:1048E000C2407B610192019B002B14BF0221012178
:1048F000BB613961C4B1A4F2334404443460C0F1F3
:1049000035002860384602B0BDE8F08142F48012DC
:10491000D5E77961E7E701A8FFF7DAFD0121019BFF
:1049200039617B612030E5E7A0F2324007EB81037B
:1049300030601869FFF7ADFDC0EB4110E1E738B515
:1049400002FB01F4214600F055F8054618B1224655
:104950000021FEF72FFA284638BD000038B505467D
:10496000002943D051F8043C0C1F002BB8BFE418B9
:1049700000F027FA1E4A1368104633B963601460CA
:104980002846BDE8384000F01DBAA3420BD9216883
:104990006218934201BF1A685B6852182260636014
:1049A0000460EDE713465A680AB1A242FAD91968C1
:1049B0005818A0420BD1206801445818824219604F
:1049C000DED110685268014419605A60D8E702D9F4
:1049D0000C232B60D4E7206821188A4201BF11689C
:1049E00052680918216062605C60C9E738BD00BF89
:1049F0000402002070B5CD1C25F0030508350C2DF0
:104A000038BF0C25002D064601DBA94203D90C2333
:104A10003360002070BD00F0D4F9214A14682146AB
:104A200091B9204C23681BB9304600F08FF9206003
:104A30002946304600F08AF9431C24D10C23304625
:104A4000336000F0BFF9E4E70B685B1B18D40B2B55
:104A50000FD90B60CC18CD50304600F0B3F904F1FB
:104A60000B00231D20F00700C31AD3D05A42E25096
:104A7000D0E74B688C4216BF636013600C46EBE7CF
:104A80000C464968CCE7C41C24F00304A04205D0BE
:104A9000211A304600F05AF90130CFD02560DBE70B
:104AA00004020020080200202DE9F0478E688246AB
:104AB0009E420C469046994637D88A8912F4906FE8
:104AC00031D00223256809696F1A656905EB450530
:104AD00095FBF3F509F101033B449D4238BF1D46A8
:104AE000530530D52946FFF785FF064650B90C23FC
:104AF0004FF0FF30CAF80030A38943F04003A38190
:104B0000BDE8F0873A462169FFF732FCA38923F418
:104B1000906343F08003A38126613E4426604E46A5
:104B20006561ED1BA5604E4500D94E4632464146B3
:104B3000206800F02DF9A36800209B1BA360236868
:104B40001E442660DCE72A4600F03DF906460028B0
:104B5000E2D121695046FFF701FFC8E72DE9F04F88
:104B60001D468B899DB01F0680460C4616460FD504
:104B70000B696BB94021FFF73DFF2060206128B928
:104B80000C23C8F800304FF0FF30C8E040236361C9
:104B90000023099320238DF8293030234FF0010B97
:104BA0008DF82A30039537463D4615F8013B0BB189
:104BB000252B3ED1B7EB060A0BD053463246214691
:104BC0004046FFF771FF013000F0A480099B534479
:104BD00009933B78002B00F09D8000234FF0FF32BB
:104BE000CDE90523049307938DF853301A932F468C
:104BF000052217F8011B5048FFF7ACFB049BD0B906
:104C0000D90644BF20228DF853201A0744BF2B2217
:104C10008DF853202A782A2A15D02F4600200A25FD
:104C2000079A394611F8013B303B092B4DD9B8B1F1
:104C30000FE02F46B8E7404A3D46801A0BFA00F0D5
:104C400018430490D3E7039A111D12680391002AB8
:104C500001DB079204E0524243F0020307920493FF
:104C60003B782E2B0CD17B782A2B33D1039B023738
:104C70001A1D1B680392002BB8BF4FF0FF3305933A
:104C80002E4D032239782846FFF764FB38B14023C4
:104C9000401B03FA00F0049B013703430493397867
:104CA000062227487E1C8DF82810FFF753FB0028AA
:104CB00038D0244B13BB039B073323F0070308337F
:104CC0000393099B4B4409936DE705FB02320120D6
:104CD0000F46A6E700230A251946013705933846F3
:104CE00010F8012B303A092A03D9002BC8D00591BE
:104CF000C6E705FB012101230746F0E703AB00935C
:104D00002246114B04A94046FEF7EEF8B0F1FF3FF2
:104D10008146D6D1A3895B063FF535AF09981DB012
:104D2000BDE8F08F03AB00932246074B04A9404631
:104D3000FEF786FBEAE700BFCC4F0008D24F000821
:104D4000D64F0008E92E0008A94A000838B500230C
:104D5000054C054608462360FDF79CFF431C02D125
:104D6000236803B12B6038BD8003002082B001B9F5
:104D700001A942B14BB113780B601278101C18BF17
:104D8000012002B070471046FBE76FF00100F8E722
:104D9000884210B501EB020307D8421E99420AD09F
:104DA00011F8014B02F8014FF8E78342F5D9811859
:104DB000D21AD34200D110BD13F8014D01F8014DB4
:104DC000F7E770477047F8B5074614460E4621B915
:104DD000BDE8F8401146FFF70DBE22B9FFF7BEFD52
:104DE00025462846F8BD00F021F8A0420FD2214602
:104DF0003846FFF7FFFD05460028F2D0314622462F
:104E0000FFF7B6FA31463846FFF7A8FDE9E7354621
:104E1000E7E749B1FF2A8BBF8A230A7003600120AC
:104E200088BF4FF0FF3070470846704751F8043C88
:104E3000181F002BBCBF0B58C0187047F8B500BF37
:104E4000F8BC08BC9E467047F8B500BFF8BC08BC6B
:044E50009E467047C3
:104E580002030405060708090A0B0C0D0E0F1010B3
:104E6800252E34662C20252E34660A0D00000000FD
:104E78000000000000010203040607080900000002
:104E88000001020304494E4600696E66004E414E19
:104E9800006E616E003000303132333435363738C9
:104EA8003941424344454600303132333435363790
:104EB800383961626364656600496E66696E697453
:104EC80079004E614E0000000080E03779C341430D
:104ED800176E05B5B5B89346F5F93FE9034F384D58
:104EE800321D30F94877825A3CBF737FDD4F157504
:104EF800000000000000F03F000000000000244017
:104F080000000000000059400000000000408F40F1
:104F1800000000000088C34000000000006AF8405C
:104F28000000000080842E4100000000D012634180
:104F38000000000084D797410000000065CDCD41F6
:104F4800000000205FA00242000000E876483742D7
:104F5800000000A2941A6D42000040E59C30A24275
:104F68000000901EC4BCD64200003426F56B0C43EA
:104F78000080E03779C3414300A0D8855734764391
:104F880000C84E676DC1AB43003D9160E458E143F2
:104F9800408CB5781DAF154450EFE2D6E41A4B4467
:104FA80092D54D06CFF08044F64AE1C7022DB544AC
:104FB800B49DD9794378EA4405000000190000003F
:104FC8007D000000232D302B2000686C4C006566A6
:104FD80067454647004300504F534958002E00008C
:104FE8002020202020202020202828282828202091
:104FF80020202020202020202020202020202020A9
:105008008810101010101010101010101010101020
:105018000404040404040404040410101010101000
:1050280010414141414141010101010101010101D9
:10503800010101010101010101010110101010100D
:1050480010424242424242020202020202020202AA
:1050580002020202020202020202021010101020D2
:105068000000000000000000000000000000000038
:105078000000000000000000000000000000000028
:105088000000000000000000000000000000000018
:105098000000000000000000000000000000000008
:1050A80000000000000000000000000000000000F8
:1050B80000000000000000000000000000000000E8
:1050C80000000000000000000000000000000000D8
:1050D80000000000000000000000000000000000C8
:0450E8003501000886
:0450EC0011010008A6
:1050F000010000001000000000A24A04100000207F
:10510000000000000000000000000000000000009F
:10511000000000000000000000000000000000008F
:10512000000000000000000000000000000000007F
:10513000000000000000000000000000000000006F
:10514000000000000000000000000000000000005F
:10515000000000000000000000000000000000004F
:1051600043000000000000000000000000000000FC
:10517000000000000000000000000000000000002F
:1051800043000000000000000000000000000000DC
:10519000000000000000000000000000000000000F
:1051A00043000000000000000000000000000000BC
:1051B00000000000000000000000000000000000EF
:1051C000430000000000000000000000000000009C
:1051D00000000000000000000000000000000000CF
:1051E000430000000000000000000000000000007C
:1051F00000000000000000000000000000000000AF
:10520000430000000000000000000000000000005B
:10521000000000000000000000000000000000008E
:10522000430000000000000000000000000000003B
:10523000000000000000000000000000000000006E
:10524000134E00086D4D000800000000E74F0008F5
:10525000E54F0008744E0008744E0008744E0008B4
:10526000744E0008744E0008744E0008744E000816
:10527000744E0008744E0008FFFFFFFFFFFFFFFFA2
:10528000FFFFFFFFFFFF00000100415343494900BA
:10529000000000000000000000000000000000000E
:1052A0000000000000000000000041534349490095
:1052B00000000000000000000000000000000000EE
:0C52C000000000000000000000000000E2
:0400000508002D15AD
:00000001FF
